{
  "contractName": "Certificant",
  "abi": [
    {
      "inputs": [],
      "stateMutability": "nonpayable",
      "type": "constructor"
    },
    {
      "inputs": [
        {
          "internalType": "string",
          "name": "id",
          "type": "string"
        },
        {
          "internalType": "string",
          "name": "enc_cert",
          "type": "string"
        },
        {
          "internalType": "string",
          "name": "sm3_cert",
          "type": "string"
        }
      ],
      "name": "store",
      "outputs": [],
      "stateMutability": "nonpayable",
      "type": "function"
    },
    {
      "inputs": [
        {
          "internalType": "string",
          "name": "id",
          "type": "string"
        }
      ],
      "name": "revoke",
      "outputs": [],
      "stateMutability": "nonpayable",
      "type": "function"
    },
    {
      "inputs": [
        {
          "internalType": "string",
          "name": "id",
          "type": "string"
        }
      ],
      "name": "query",
      "outputs": [
        {
          "internalType": "string",
          "name": "",
          "type": "string"
        }
      ],
      "stateMutability": "view",
      "type": "function",
      "constant": true
    },
    {
      "inputs": [
        {
          "internalType": "string",
          "name": "id",
          "type": "string"
        },
        {
          "internalType": "string",
          "name": "sm3",
          "type": "string"
        }
      ],
      "name": "verify",
      "outputs": [
        {
          "internalType": "bool",
          "name": "",
          "type": "bool"
        }
      ],
      "stateMutability": "view",
      "type": "function",
      "constant": true
    }
  ],
  "bytecode": "0x608060405234801561001057600080fd5b50600180600073ea56710f1e5b551e19dba9155ce93868503a59b173ffffffffffffffffffffffffffffffffffffffff1673ffffffffffffffffffffffffffffffffffffffff16815260200190815260200160002060006101000a81548160ff02191690831515021790555060018060007348e151a4a77eca3859c4042c967b391c86688ef073ffffffffffffffffffffffffffffffffffffffff1673ffffffffffffffffffffffffffffffffffffffff16815260200190815260200160002060006101000a81548160ff0219169083151502179055506001806000732c448f513ce9eaeecce3b13fc8c36d976d6da95173ffffffffffffffffffffffffffffffffffffffff1673ffffffffffffffffffffffffffffffffffffffff16815260200190815260200160002060006101000a81548160ff021916908315150217905550600180600073ede12c22fc58c4239a883938643f5b91a4426c1473ffffffffffffffffffffffffffffffffffffffff1673ffffffffffffffffffffffffffffffffffffffff16815260200190815260200160002060006101000a81548160ff021916908315150217905550600180600073a71cf314d862c21576cf2bf33d3b3e0d17d2c06b73ffffffffffffffffffffffffffffffffffffffff1673ffffffffffffffffffffffffffffffffffffffff16815260200190815260200160002060006101000a81548160ff021916908315150217905550610d48806102376000396000f3fe608060405234801561001057600080fd5b506004361061004c5760003560e01c80634ae697131461005157806365b2a8631461006d5780637c261929146100895780639deb17f5146100b9575b600080fd5b61006b60048036038101906100669190610822565b6100e9565b005b61008760048036038101906100829190610775565b61029d565b005b6100a3600480360381019061009e9190610775565b6103ff565b6040516100b09190610a63565b60405180910390f35b6100d360048036038101906100ce91906107b6565b610529565b6040516100e09190610a48565b60405180910390f35b60011515600160003373ffffffffffffffffffffffffffffffffffffffff1673ffffffffffffffffffffffffffffffffffffffff16815260200190815260200160002060009054906101000a900460ff1615151461017c576040517f08c379a000000000000000000000000000000000000000000000000000000000815260040161017390610a85565b60405180910390fd5b600115156000846040516101909190610a1a565b908152602001604051809103902060020160009054906101000a900460ff16151514156101f2576040517f08c379a00000000000000000000000000000000000000000000000000000000081526004016101e990610ac5565b60405180910390fd5b816000846040516102039190610a1a565b9081526020016040518091039020600001908051906020019061022792919061062a565b50806000846040516102399190610a1a565b9081526020016040518091039020600101908051906020019061025d92919061062a565b5060016000846040516102709190610a1a565b908152602001604051809103902060020160006101000a81548160ff021916908315150217905550505050565b60011515600160003373ffffffffffffffffffffffffffffffffffffffff1673ffffffffffffffffffffffffffffffffffffffff16815260200190815260200160002060009054906101000a900460ff16151514610330576040517f08c379a000000000000000000000000000000000000000000000000000000000815260040161032790610a85565b60405180910390fd5b80600115156000826040516103459190610a1a565b908152602001604051809103902060020160009054906101000a900460ff161515146103a6576040517f08c379a000000000000000000000000000000000000000000000000000000000815260040161039d90610aa5565b60405180910390fd5b6000826040516103b69190610a1a565b9081526020016040518091039020600080820160006103d591906106b0565b6001820160006103e591906106b0565b6002820160006101000a81549060ff021916905550505050565b606081600115156000826040516104169190610a1a565b908152602001604051809103902060020160009054906101000a900460ff16151514610477576040517f08c379a000000000000000000000000000000000000000000000000000000000815260040161046e90610aa5565b60405180910390fd5b6000836040516104879190610a1a565b908152602001604051809103902060000180546104a390610bc5565b80601f01602080910402602001604051908101604052809291908181526020018280546104cf90610bc5565b801561051c5780601f106104f15761010080835404028352916020019161051c565b820191906000526020600020905b8154815290600101906020018083116104ff57829003601f168201915b5050505050915050919050565b600082600115156000826040516105409190610a1a565b908152602001604051809103902060020160009054906101000a900460ff161515146105a1576040517f08c379a000000000000000000000000000000000000000000000000000000000815260040161059890610aa5565b60405180910390fd5b6000846040516105b19190610a1a565b90815260200160405180910390206001016040516020016105d29190610a31565b60405160208183030381529060405280519060200120836040516020016105f99190610a1a565b60405160208183030381529060405280519060200120141561061e5760019150610623565b600091505b5092915050565b82805461063690610bc5565b90600052602060002090601f016020900481019282610658576000855561069f565b82601f1061067157805160ff191683800117855561069f565b8280016001018555821561069f579182015b8281111561069e578251825591602001919060010190610683565b5b5090506106ac91906106f0565b5090565b5080546106bc90610bc5565b6000825580601f106106ce57506106ed565b601f0160209004906000526020600020908101906106ec91906106f0565b5b50565b5b808211156107095760008160009055506001016106f1565b5090565b600061072061071b84610b0a565b610ae5565b90508281526020810184848401111561073857600080fd5b610743848285610b83565b509392505050565b600082601f83011261075c57600080fd5b813561076c84826020860161070d565b91505092915050565b60006020828403121561078757600080fd5b600082013567ffffffffffffffff8111156107a157600080fd5b6107ad8482850161074b565b91505092915050565b600080604083850312156107c957600080fd5b600083013567ffffffffffffffff8111156107e357600080fd5b6107ef8582860161074b565b925050602083013567ffffffffffffffff81111561080c57600080fd5b6108188582860161074b565b9150509250929050565b60008060006060848603121561083757600080fd5b600084013567ffffffffffffffff81111561085157600080fd5b61085d8682870161074b565b935050602084013567ffffffffffffffff81111561087a57600080fd5b6108868682870161074b565b925050604084013567ffffffffffffffff8111156108a357600080fd5b6108af8682870161074b565b9150509250925092565b6108c281610b77565b82525050565b60006108d382610b50565b6108dd8185610b5b565b93506108ed818560208601610b92565b6108f681610c86565b840191505092915050565b600061090c82610b50565b6109168185610b6c565b9350610926818560208601610b92565b80840191505092915050565b6000815461093f81610bc5565b6109498186610b6c565b945060018216600081146109645760018114610975576109a8565b60ff198316865281860193506109a8565b61097e85610b3b565b60005b838110156109a057815481890152600182019150602081019050610981565b838801955050505b50505092915050565b60006109be601183610b5b565b91506109c982610c97565b602082019050919050565b60006109e1601a83610b5b565b91506109ec82610cc0565b602082019050919050565b6000610a04601a83610b5b565b9150610a0f82610ce9565b602082019050919050565b6000610a268284610901565b915081905092915050565b6000610a3d8284610932565b915081905092915050565b6000602082019050610a5d60008301846108b9565b92915050565b60006020820190508181036000830152610a7d81846108c8565b905092915050565b60006020820190508181036000830152610a9e816109b1565b9050919050565b60006020820190508181036000830152610abe816109d4565b9050919050565b60006020820190508181036000830152610ade816109f7565b9050919050565b6000610aef610b00565b9050610afb8282610bf7565b919050565b6000604051905090565b600067ffffffffffffffff821115610b2557610b24610c57565b5b610b2e82610c86565b9050602081019050919050565b60008190508160005260206000209050919050565b600081519050919050565b600082825260208201905092915050565b600081905092915050565b60008115159050919050565b82818337600083830152505050565b60005b83811015610bb0578082015181840152602081019050610b95565b83811115610bbf576000848401525b50505050565b60006002820490506001821680610bdd57607f821691505b60208210811415610bf157610bf0610c28565b5b50919050565b610c0082610c86565b810181811067ffffffffffffffff82111715610c1f57610c1e610c57565b5b80604052505050565b7f4e487b7100000000000000000000000000000000000000000000000000000000600052602260045260246000fd5b7f4e487b7100000000000000000000000000000000000000000000000000000000600052604160045260246000fd5b6000601f19601f8301169050919050565b7f5065726d697373696f6e2044656e696564000000000000000000000000000000600082015250565b7f436572746966696361746520646f6573206e6f74206578697374000000000000600082015250565b7f436572746966696361746520616c72656164792065786973747300000000000060008201525056fea264697066735822122009b7d0e2941dbe527be90058757bb5153359fe6fd64b70e190c3d9e322909d1c64736f6c63430008030033",
  "immutableReferences": {},
  "source": "// SPDX-License-Identifier: MIT\npragma solidity >=0.7.0 <0.9.0;\n\ncontract Certificant{\n    \n    struct Cert {\n        string enc_cert;\n        string sm3_cert;\n        bool exist;// \n    }\n\n    // \n    mapping (string => Cert) certs;\n\n    // \n    mapping (address => bool) accounts;\n\n    constructor(){\n        accounts[0xEA56710f1E5b551e19Dba9155Ce93868503A59b1] = true;\n        accounts[0x48e151a4a77ecA3859c4042c967B391C86688Ef0] = true;\n        accounts[0x2C448f513ce9eaeECce3B13Fc8c36d976d6dA951] = true;\n        accounts[0xEDe12c22fC58C4239a883938643F5B91a4426c14] = true;\n        accounts[0xa71Cf314d862c21576CF2bf33d3B3E0D17d2c06B] = true;\n    }\n\n    modifier onlyAdmin(){\n        require(accounts[msg.sender] == true, \"Permission Denied\");\n        _;\n    }\n\n    modifier certExist(string memory id){\n        require(certs[id].exist == true, \"Certificate does not exist\");\n        _;\n    }\n\n    function store(string memory id, string memory enc_cert, string memory sm3_cert) public onlyAdmin {\n        require(certs[id].exist != true, \"Certificate already exists\");\n        certs[id].enc_cert = enc_cert;\n        certs[id].sm3_cert = sm3_cert;\n        certs[id].exist = true;\n    }\n\n    function revoke(string memory id) public onlyAdmin certExist(id) {\n        delete(certs[id]);\n    }\n\n    function query(string memory id) public view certExist(id) returns(string memory){\n        return certs[id].enc_cert;\n    }\n\n    function verify(string memory id, string memory sm3) public view certExist(id) returns(bool){\n        if(keccak256(abi.encodePacked(sm3)) == keccak256(abi.encodePacked(certs[id].sm3_cert))){\n            return true;\n        }else{\n            return false;\n        }\n    }\n}",
  "sourcePath": "/home/lnjoy/bcms/bcms-contract/contracts/Certificant.sol",
  "compiler": {
    "name": "solc",
    "version": "0.8.3+commit.8d00100c.Emscripten.clang"
  },
  "schemaVersion": "3.3.4",
  "updatedAt": "2021-05-03T02:59:24.233Z",
  "networkType": "ethereum",
  "devdoc": {
    "kind": "dev",
    "methods": {},
    "version": 1
  },
  "userdoc": {
    "kind": "user",
    "methods": {},
    "version": 1
  }
}